{
  "address": "0x14aaa77616bd5Ff2b7A75CAA1F945C7c5C8fD817",
  "abi": [
    {
      "inputs": [
        {
          "internalType": "address payable",
          "name": "diceGameAddress",
          "type": "address"
        }
      ],
      "stateMutability": "nonpayable",
      "type": "constructor"
    },
    {
      "inputs": [
        {
          "internalType": "address",
          "name": "owner",
          "type": "address"
        }
      ],
      "name": "OwnableInvalidOwner",
      "type": "error"
    },
    {
      "inputs": [
        {
          "internalType": "address",
          "name": "account",
          "type": "address"
        }
      ],
      "name": "OwnableUnauthorizedAccount",
      "type": "error"
    },
    {
      "anonymous": false,
      "inputs": [
        {
          "indexed": true,
          "internalType": "address",
          "name": "previousOwner",
          "type": "address"
        },
        {
          "indexed": true,
          "internalType": "address",
          "name": "newOwner",
          "type": "address"
        }
      ],
      "name": "OwnershipTransferred",
      "type": "event"
    },
    {
      "inputs": [],
      "name": "diceGame",
      "outputs": [
        {
          "internalType": "contract DiceGame",
          "name": "",
          "type": "address"
        }
      ],
      "stateMutability": "view",
      "type": "function"
    },
    {
      "inputs": [],
      "name": "owner",
      "outputs": [
        {
          "internalType": "address",
          "name": "",
          "type": "address"
        }
      ],
      "stateMutability": "view",
      "type": "function"
    },
    {
      "inputs": [],
      "name": "renounceOwnership",
      "outputs": [],
      "stateMutability": "nonpayable",
      "type": "function"
    },
    {
      "inputs": [],
      "name": "riggedRoll",
      "outputs": [],
      "stateMutability": "nonpayable",
      "type": "function"
    },
    {
      "inputs": [
        {
          "internalType": "address",
          "name": "newOwner",
          "type": "address"
        }
      ],
      "name": "transferOwnership",
      "outputs": [],
      "stateMutability": "nonpayable",
      "type": "function"
    },
    {
      "inputs": [
        {
          "internalType": "address payable",
          "name": "_to",
          "type": "address"
        },
        {
          "internalType": "uint256",
          "name": "amount",
          "type": "uint256"
        }
      ],
      "name": "withdraw",
      "outputs": [],
      "stateMutability": "nonpayable",
      "type": "function"
    },
    {
      "stateMutability": "payable",
      "type": "receive"
    }
  ],
  "transactionHash": "0xe33b3941014e7f0f63d4483a2bb0e0804b8b72817b26e2f657ad3545b2ed6635",
  "args": [
    "0x37FFF486C8AF1126A6450011d4D6cddC4262B3FE"
  ],
  "numDeployments": 2,
  "solcInputHash": "31319752fe12e48c97d5eaf36d1aacf5",
  "bytecode": "0x608060405234801561001057600080fd5b506040516108ce3803806108ce83398101604081905261002f916100d4565b338061005557604051631e4fbdf760e01b81526000600482015260240160405180910390fd5b61005e81610084565b50600180546001600160a01b0319166001600160a01b0392909216919091179055610104565b600080546001600160a01b038381166001600160a01b0319831681178455604051919092169283917f8be0079c531659141344cd1fd0a4f28419497f9722a3daafe3b4186f6b6457e09190a35050565b6000602082840312156100e657600080fd5b81516001600160a01b03811681146100fd57600080fd5b9392505050565b6107bb806101136000396000f3fe6080604052600436106100595760003560e01c80636b5e97f81461009b578063715018a6146100b05780638da5cb5b146100c55780638e288fd1146100fb578063f2fde38b1461011b578063f3fef3a31461013b57600080fd5b3661009657610094604051806040016040528060148152602001732934b3b3b2b22937b636103932b1b2b4bb32b21d60611b8152503461015b565b005b600080fd5b3480156100a757600080fd5b506100946101a4565b3480156100bc57600080fd5b506100946103f4565b3480156100d157600080fd5b506000546001600160a01b03165b6040516001600160a01b03909116815260200160405180910390f35b34801561010757600080fd5b506001546100df906001600160a01b031681565b34801561012757600080fd5b50610094610136366004610630565b610408565b34801561014757600080fd5b50610094610156366004610654565b610446565b6101a082826040516024016101719291906106c6565b60408051601f198184030181529190526020810180516001600160e01b0316632d839cb360e21b179052610531565b5050565b6101ac61053a565b66071afd498d00004710156102085760405162461bcd60e51b815260206004820152601e60248201527f4e6f7420656e6f7567682066756e647320696e20526967676564526f6c6c000060448201526064015b60405180910390fd5b6001546040805163057ff68760e51b815290516000926001600160a01b03169163affed0e09160048083019260209291908290030181865afa158015610252573d6000803e3d6000fd5b505050506040513d601f19601f8201168201806040525081019061027691906106e8565b90506000610285600143610701565b6001546040805192406020840181905260609290921b6bffffffffffffffffffffffff19169083015260548201849052915060009060740160408051601f198184030181529190528051602090910120905060006102e4601083610728565b90506103176040518060400160405280600f81526020016e283932b234b1ba32b2103937b6361d60891b8152508261015b565b600581111561037e5761034160405180606001604052806028815260200161075e60289139610567565b60405162461bcd60e51b8152602060048201526012602482015271526f6c6c206e6f74206661766f7261626c6560701b60448201526064016101ff565b600160009054906101000a90046001600160a01b03166001600160a01b0316637d789dee66071afd498d00006040518263ffffffff1660e01b81526004016000604051808303818588803b1580156103d557600080fd5b505af11580156103e9573d6000803e3d6000fd5b505050505050505050565b6103fc61053a565b61040660006105aa565b565b61041061053a565b6001600160a01b03811661043a57604051631e4fbdf760e01b8152600060048201526024016101ff565b610443816105aa565b50565b61044e61053a565b804710156104955760405162461bcd60e51b8152602060048201526014602482015273496e73756666696369656e742062616c616e636560601b60448201526064016101ff565b6000826001600160a01b03168260405160006040518083038185875af1925050503d80600081146104e2576040519150601f19603f3d011682016040523d82523d6000602084013e6104e7565b606091505b505090508061052c5760405162461bcd60e51b815260206004820152601160248201527015da5d1a191c985dd85b0819985a5b1959607a1b60448201526064016101ff565b505050565b610443816105fa565b6000546001600160a01b031633146104065760405163118cdaa760e01b81523360048201526024016101ff565b6104438160405160240161057b919061074a565b60408051601f198184030181529190526020810180516001600160e01b031663104c13eb60e21b179052610531565b600080546001600160a01b038381166001600160a01b0319831681178455604051919092169283917f8be0079c531659141344cd1fd0a4f28419497f9722a3daafe3b4186f6b6457e09190a35050565b60006a636f6e736f6c652e6c6f679050600080835160208501845afa505050565b6001600160a01b038116811461044357600080fd5b60006020828403121561064257600080fd5b813561064d8161061b565b9392505050565b6000806040838503121561066757600080fd5b82356106728161061b565b946020939093013593505050565b6000815180845260005b818110156106a65760208185018101518683018201520161068a565b506000602082860101526020601f19601f83011685010191505092915050565b6040815260006106d96040830185610680565b90508260208301529392505050565b6000602082840312156106fa57600080fd5b5051919050565b8181038181111561072257634e487b7160e01b600052601160045260246000fd5b92915050565b60008261074557634e487b7160e01b600052601260045260246000fd5b500690565b60208152600061064d602083018461068056fe526f6c6c206e6f74206661766f7261626c652e2041626f7274696e6720726967676564526f6c6c2ea2646970667358221220d294a70345f297788e0152e457e11cb6250a679eeb17f280327d5d306d9bde9364736f6c63430008140033",
  "devdoc": {
    "errors": {
      "OwnableInvalidOwner(address)": [
        {
          "details": "The owner is not a valid owner account. (eg. `address(0)`)"
        }
      ],
      "OwnableUnauthorizedAccount(address)": [
        {
          "details": "The caller account is not authorized to perform an operation."
        }
      ]
    },
    "kind": "dev",
    "methods": {
      "owner()": {
        "details": "Returns the address of the current owner."
      },
      "renounceOwnership()": {
        "details": "Leaves the contract without owner. It will not be possible to call `onlyOwner` functions. Can only be called by the current owner. NOTE: Renouncing ownership will leave the contract without an owner, thereby disabling any functionality that is only available to the owner."
      },
      "transferOwnership(address)": {
        "details": "Transfers ownership of the contract to a new account (`newOwner`). Can only be called by the current owner."
      }
    },
    "version": 1
  },
  "userdoc": {
    "kind": "user",
    "methods": {},
    "version": 1
  },
  "storageLayout": {
    "storage": [
      {
        "astId": 8,
        "contract": "contracts/RiggedRoll.sol:RiggedRoll",
        "label": "_owner",
        "offset": 0,
        "slot": "0",
        "type": "t_address"
      },
      {
        "astId": 351,
        "contract": "contracts/RiggedRoll.sol:RiggedRoll",
        "label": "diceGame",
        "offset": 0,
        "slot": "1",
        "type": "t_contract(DiceGame)341"
      }
    ],
    "types": {
      "t_address": {
        "encoding": "inplace",
        "label": "address",
        "numberOfBytes": "20"
      },
      "t_contract(DiceGame)341": {
        "encoding": "inplace",
        "label": "contract DiceGame",
        "numberOfBytes": "20"
      }
    }
  }
}